{
  "_format": "hh-sol-artifact-1",
  "contractName": "Fund",
  "sourceName": "contracts/Fund.sol",
  "abi": [
    {
      "inputs": [
        {
          "internalType": "address",
          "name": "priceFeed",
          "type": "address"
        }
      ],
      "stateMutability": "nonpayable",
      "type": "constructor"
    },
    {
      "anonymous": false,
      "inputs": [
        {
          "indexed": false,
          "internalType": "string",
          "name": "name",
          "type": "string"
        },
        {
          "indexed": false,
          "internalType": "string",
          "name": "description",
          "type": "string"
        },
        {
          "indexed": false,
          "internalType": "string",
          "name": "imageUrl",
          "type": "string"
        },
        {
          "indexed": true,
          "internalType": "uint256",
          "name": "goal",
          "type": "uint256"
        },
        {
          "indexed": true,
          "internalType": "uint256",
          "name": "deadline",
          "type": "uint256"
        }
      ],
      "name": "CampaignCreated",
      "type": "event"
    },
    {
      "inputs": [],
      "name": "MINIMUM_USD",
      "outputs": [
        {
          "internalType": "uint256",
          "name": "",
          "type": "uint256"
        }
      ],
      "stateMutability": "view",
      "type": "function"
    },
    {
      "inputs": [
        {
          "internalType": "uint256",
          "name": "",
          "type": "uint256"
        }
      ],
      "name": "campaignCount",
      "outputs": [
        {
          "internalType": "address",
          "name": "",
          "type": "address"
        }
      ],
      "stateMutability": "view",
      "type": "function"
    },
    {
      "inputs": [
        {
          "internalType": "address",
          "name": "",
          "type": "address"
        }
      ],
      "name": "campaigns",
      "outputs": [
        {
          "internalType": "string",
          "name": "name",
          "type": "string"
        },
        {
          "internalType": "string",
          "name": "description",
          "type": "string"
        },
        {
          "internalType": "string",
          "name": "imageUrl",
          "type": "string"
        },
        {
          "internalType": "uint256",
          "name": "fundingGoal",
          "type": "uint256"
        },
        {
          "internalType": "uint256",
          "name": "balance",
          "type": "uint256"
        },
        {
          "internalType": "uint256",
          "name": "deadline",
          "type": "uint256"
        },
        {
          "internalType": "bool",
          "name": "fundingSuccessful",
          "type": "bool"
        },
        {
          "internalType": "bool",
          "name": "campaignExist",
          "type": "bool"
        },
        {
          "internalType": "uint256",
          "name": "lastTimeStamp",
          "type": "uint256"
        }
      ],
      "stateMutability": "view",
      "type": "function"
    },
    {
      "inputs": [
        {
          "internalType": "bytes",
          "name": "checkData",
          "type": "bytes"
        }
      ],
      "name": "checkUpkeep",
      "outputs": [
        {
          "internalType": "bool",
          "name": "upkeepNeeded",
          "type": "bool"
        },
        {
          "internalType": "bytes",
          "name": "performData",
          "type": "bytes"
        }
      ],
      "stateMutability": "view",
      "type": "function"
    },
    {
      "inputs": [
        {
          "internalType": "string",
          "name": "name",
          "type": "string"
        },
        {
          "internalType": "string",
          "name": "description",
          "type": "string"
        },
        {
          "internalType": "string",
          "name": "imageUrl",
          "type": "string"
        },
        {
          "internalType": "uint256",
          "name": "goal",
          "type": "uint256"
        },
        {
          "internalType": "uint256",
          "name": "deadline",
          "type": "uint256"
        }
      ],
      "name": "createCampaign",
      "outputs": [],
      "stateMutability": "nonpayable",
      "type": "function"
    },
    {
      "inputs": [
        {
          "internalType": "address",
          "name": "creator",
          "type": "address"
        }
      ],
      "name": "fundCampaign",
      "outputs": [],
      "stateMutability": "payable",
      "type": "function"
    },
    {
      "inputs": [
        {
          "internalType": "uint256",
          "name": "",
          "type": "uint256"
        }
      ],
      "name": "funders",
      "outputs": [
        {
          "internalType": "address",
          "name": "",
          "type": "address"
        }
      ],
      "stateMutability": "view",
      "type": "function"
    },
    {
      "inputs": [],
      "name": "getAllCampaigns",
      "outputs": [
        {
          "internalType": "uint256",
          "name": "",
          "type": "uint256"
        }
      ],
      "stateMutability": "view",
      "type": "function"
    },
    {
      "inputs": [
        {
          "internalType": "address",
          "name": "creator",
          "type": "address"
        }
      ],
      "name": "getCampaignBalance",
      "outputs": [
        {
          "internalType": "uint256",
          "name": "",
          "type": "uint256"
        }
      ],
      "stateMutability": "view",
      "type": "function"
    },
    {
      "inputs": [
        {
          "internalType": "address",
          "name": "creator",
          "type": "address"
        }
      ],
      "name": "getCampaignName",
      "outputs": [
        {
          "internalType": "string",
          "name": "",
          "type": "string"
        }
      ],
      "stateMutability": "view",
      "type": "function"
    },
    {
      "inputs": [],
      "name": "owner",
      "outputs": [
        {
          "internalType": "address",
          "name": "",
          "type": "address"
        }
      ],
      "stateMutability": "view",
      "type": "function"
    },
    {
      "inputs": [
        {
          "internalType": "bytes",
          "name": "performData",
          "type": "bytes"
        }
      ],
      "name": "performUpkeep",
      "outputs": [],
      "stateMutability": "nonpayable",
      "type": "function"
    },
    {
      "inputs": [],
      "name": "withdrawFromCampaign",
      "outputs": [],
      "stateMutability": "nonpayable",
      "type": "function"
    }
  ],
  "bytecode": "0x608060405234801561001057600080fd5b5060405161278f38038061278f8339818101604052810190610032919061011c565b336000806101000a81548173ffffffffffffffffffffffffffffffffffffffff021916908373ffffffffffffffffffffffffffffffffffffffff16021790555080600460006101000a81548173ffffffffffffffffffffffffffffffffffffffff021916908373ffffffffffffffffffffffffffffffffffffffff16021790555050610149565b600080fd5b600073ffffffffffffffffffffffffffffffffffffffff82169050919050565b60006100e9826100be565b9050919050565b6100f9816100de565b811461010457600080fd5b50565b600081519050610116816100f0565b92915050565b600060208284031215610132576101316100b9565b5b600061014084828501610107565b91505092915050565b612637806101586000396000f3fe6080604052600436106100c25760003560e01c80636e04ff0d1161007f57806386cdf6041161005957806386cdf604146102885780638da5cb5b146102b3578063980f2e66146102de578063dc0d3dff14610307576100c2565b80636e04ff0d146101f65780637013e5f5146102345780638654495214610271576100c2565b8063044ae09d146100c757806313484264146101045780631601d0b5146101415780634585e33b146101865780636682717e146101af5780636b69a592146101cb575b600080fd5b3480156100d357600080fd5b506100ee60048036038101906100e991906116b6565b610344565b6040516100fb9190611773565b60405180910390f35b34801561011057600080fd5b5061012b600480360381019061012691906117cb565b610418565b6040516101389190611807565b60405180910390f35b34801561014d57600080fd5b50610168600480360381019061016391906116b6565b610457565b60405161017d9998979695949392919061184c565b60405180910390f35b34801561019257600080fd5b506101ad60048036038101906101a89190611953565b610657565b005b6101c960048036038101906101c491906116b6565b610913565b005b3480156101d757600080fd5b506101e0610ae7565b6040516101ed91906119a0565b60405180910390f35b34801561020257600080fd5b5061021d60048036038101906102189190611aeb565b610af3565b60405161022b929190611b89565b60405180910390f35b34801561024057600080fd5b5061025b600480360381019061025691906116b6565b610e04565b60405161026891906119a0565b60405180910390f35b34801561027d57600080fd5b50610286610e50565b005b34801561029457600080fd5b5061029d6111d1565b6040516102aa91906119a0565b60405180910390f35b3480156102bf57600080fd5b506102c86111de565b6040516102d59190611807565b60405180910390f35b3480156102ea57600080fd5b5061030560048036038101906103009190611c5a565b611202565b005b34801561031357600080fd5b5061032e600480360381019061032991906117cb565b6113dd565b60405161033b9190611807565b60405180910390f35b6060600360008373ffffffffffffffffffffffffffffffffffffffff1673ffffffffffffffffffffffffffffffffffffffff168152602001908152602001600020600001805461039390611d58565b80601f01602080910402602001604051908101604052809291908181526020018280546103bf90611d58565b801561040c5780601f106103e15761010080835404028352916020019161040c565b820191906000526020600020905b8154815290600101906020018083116103ef57829003601f168201915b50505050509050919050565b6001818154811061042857600080fd5b906000526020600020016000915054906101000a900473ffffffffffffffffffffffffffffffffffffffff1681565b600360205280600052604060002060009150905080600001805461047a90611d58565b80601f01602080910402602001604051908101604052809291908181526020018280546104a690611d58565b80156104f35780601f106104c8576101008083540402835291602001916104f3565b820191906000526020600020905b8154815290600101906020018083116104d657829003601f168201915b50505050509080600101805461050890611d58565b80601f016020809104026020016040519081016040528092919081815260200182805461053490611d58565b80156105815780601f1061055657610100808354040283529160200191610581565b820191906000526020600020905b81548152906001019060200180831161056457829003601f168201915b50505050509080600201805461059690611d58565b80601f01602080910402602001604051908101604052809291908181526020018280546105c290611d58565b801561060f5780601f106105e45761010080835404028352916020019161060f565b820191906000526020600020905b8154815290600101906020018083116105f257829003601f168201915b5050505050908060030154908060040154908060050154908060060160009054906101000a900460ff16908060060160019054906101000a900460ff16908060070154905089565b7f5fe7f977e71dba2ea1a68e21057beebb9be2ac30c6410aa38d4f3fbe41dcffd28282604051610688929190611db9565b604051809103902003610759576000600180549050905060005b81811015610756576000600182815481106106c0576106bf611dd2565b5b9060005260206000200160009054906101000a900473ffffffffffffffffffffffffffffffffffffffff1690506001600360008373ffffffffffffffffffffffffffffffffffffffff1673ffffffffffffffffffffffffffffffffffffffff16815260200190815260200160002060060160006101000a81548160ff0219169083151502179055505080806001019150506106a2565b50505b7ff2ee15ea639b73fa3db9b34a245bdfa015c260c598b211bf05a1ecc4b3e3b4f2828260405161078a929190611db9565b60405180910390200361090f576000600180549050905060005b8181101561090c576000600182815481106107c2576107c1611dd2565b5b9060005260206000200160009054906101000a900473ffffffffffffffffffffffffffffffffffffffff1690506000600360008373ffffffffffffffffffffffffffffffffffffffff1673ffffffffffffffffffffffffffffffffffffffff16815260200190815260200160002060040154905060005b6002805490508110156108fc5760006002828154811061085c5761085b611dd2565b5b9060005260206000200160009054906101000a900473ffffffffffffffffffffffffffffffffffffffff169050610893818461141c565b6000600360008673ffffffffffffffffffffffffffffffffffffffff1673ffffffffffffffffffffffffffffffffffffffff16815260200190815260200160002060060160016101000a81548160ff021916908315150217905550508080600101915050610839565b50505080806001019150506107a4565b50505b5050565b674563918244f40000610951600460009054906101000a900473ffffffffffffffffffffffffffffffffffffffff16346114cd90919063ffffffff16565b1015610992576040517f08c379a000000000000000000000000000000000000000000000000000000000815260040161098990611e73565b60405180910390fd5b60011515600360008373ffffffffffffffffffffffffffffffffffffffff1673ffffffffffffffffffffffffffffffffffffffff16815260200190815260200160002060060160019054906101000a900460ff16151514610a28576040517f08c379a0000000000000000000000000000000000000000000000000000000008152600401610a1f90611edf565b60405180910390fd5b6002339080600181540180825580915050600190039060005260206000200160009091909190916101000a81548173ffffffffffffffffffffffffffffffffffffffff021916908373ffffffffffffffffffffffffffffffffffffffff16021790555034600360008373ffffffffffffffffffffffffffffffffffffffff1673ffffffffffffffffffffffffffffffffffffffff1681526020019081526020016000206004016000828254610add9190611f2e565b9250508190555050565b674563918244f4000081565b600060607f5fe7f977e71dba2ea1a68e21057beebb9be2ac30c6410aa38d4f3fbe41dcffd2838051906020012003610c21576000600180549050905060005b81811015610c1e57600060018281548110610b5057610b4f611dd2565b5b9060005260206000200160009054906101000a900473ffffffffffffffffffffffffffffffffffffffff1690506000600360008373ffffffffffffffffffffffffffffffffffffffff1673ffffffffffffffffffffffffffffffffffffffff168152602001908152602001600020600401549050600360008373ffffffffffffffffffffffffffffffffffffffff1673ffffffffffffffffffffffffffffffffffffffff16815260200190815260200160002060030154811015955086945050508080600101915050610b32565b50505b7ff2ee15ea639b73fa3db9b34a245bdfa015c260c598b211bf05a1ecc4b3e3b4f2838051906020012003610dff576000600180549050905060005b81811015610dfc57600060018281548110610c7a57610c79611dd2565b5b9060005260206000200160009054906101000a900473ffffffffffffffffffffffffffffffffffffffff1690506000600360008373ffffffffffffffffffffffffffffffffffffffff1673ffffffffffffffffffffffffffffffffffffffff1681526020019081526020016000206004015490506000600360008473ffffffffffffffffffffffffffffffffffffffff1673ffffffffffffffffffffffffffffffffffffffff16815260200190815260200160002060050154905060006201518082610d469190611f62565b905080600360008673ffffffffffffffffffffffffffffffffffffffff1673ffffffffffffffffffffffffffffffffffffffff1681526020019081526020016000206007015442610d979190611fa4565b118015610de65750600360008573ffffffffffffffffffffffffffffffffffffffff1673ffffffffffffffffffffffffffffffffffffffff168152602001908152602001600020600301548311155b9750889650505050508080600101915050610c5c565b50505b915091565b6000600360008373ffffffffffffffffffffffffffffffffffffffff1673ffffffffffffffffffffffffffffffffffffffff168152602001908152602001600020600401549050919050565b600360003373ffffffffffffffffffffffffffffffffffffffff1673ffffffffffffffffffffffffffffffffffffffff16815260200190815260200160002060060160019054906101000a900460ff16610edf576040517f08c379a0000000000000000000000000000000000000000000000000000000008152600401610ed690611edf565b60405180910390fd5b60011515600360003373ffffffffffffffffffffffffffffffffffffffff1673ffffffffffffffffffffffffffffffffffffffff16815260200190815260200160002060060160009054906101000a900460ff16151514610f75576040517f08c379a0000000000000000000000000000000000000000000000000000000008152600401610f6c90612024565b60405180910390fd5b6000600280549050905060005b8181101561107e57600060028281548110610fa057610f9f611dd2565b5b9060005260206000200160009054906101000a900473ffffffffffffffffffffffffffffffffffffffff1690506000600360008373ffffffffffffffffffffffffffffffffffffffff1673ffffffffffffffffffffffffffffffffffffffff168152602001908152602001600020600401819055506000600360008373ffffffffffffffffffffffffffffffffffffffff1673ffffffffffffffffffffffffffffffffffffffff16815260200190815260200160002060060160016101000a81548160ff021916908315150217905550508080600101915050610f82565b50600067ffffffffffffffff81111561109a576110996119c0565b5b6040519080825280602002602001820160405280156110c85781602001602082028036833780820191505090505b50600290805190602001906110de92919061159d565b5060003373ffffffffffffffffffffffffffffffffffffffff16600360003373ffffffffffffffffffffffffffffffffffffffff1673ffffffffffffffffffffffffffffffffffffffff168152602001908152602001600020600401546040516111479061206a565b60006040518083038185875af1925050503d8060008114611184576040519150601f19603f3d011682016040523d82523d6000602084013e611189565b606091505b50509050806111cd576040517f08c379a00000000000000000000000000000000000000000000000000000000081526004016111c4906120cb565b60405180910390fd5b5050565b6000600180549050905090565b60008054906101000a900473ffffffffffffffffffffffffffffffffffffffff1681565b6040518061012001604052808681526020018581526020018481526020018381526020016000815260200182815260200160001515815260200160011515815260200142815250600360003373ffffffffffffffffffffffffffffffffffffffff1673ffffffffffffffffffffffffffffffffffffffff168152602001908152602001600020600082015181600001908161129d9190612297565b5060208201518160010190816112b39190612297565b5060408201518160020190816112c99190612297565b50606082015181600301556080820151816004015560a0820151816005015560c08201518160060160006101000a81548160ff02191690831515021790555060e08201518160060160016101000a81548160ff02191690831515021790555061010082015181600701559050506001339080600181540180825580915050600190039060005260206000200160009091909190916101000a81548173ffffffffffffffffffffffffffffffffffffffff021916908373ffffffffffffffffffffffffffffffffffffffff16021790555080827fbb3544837a6c4d7b36d29b50fd5b2907881b6bf0a28bbe579d05470dac27e0228787876040516113ce93929190612369565b60405180910390a35050505050565b600281815481106113ed57600080fd5b906000526020600020016000915054906101000a900473ffffffffffffffffffffffffffffffffffffffff1681565b60008273ffffffffffffffffffffffffffffffffffffffff16826040516114429061206a565b60006040518083038185875af1925050503d806000811461147f576040519150601f19603f3d011682016040523d82523d6000602084013e611484565b606091505b50509050806114c8576040517f08c379a00000000000000000000000000000000000000000000000000000000081526004016114bf90612401565b60405180910390fd5b505050565b6000806114d983611509565b90506000670de0b6b3a764000085836114f29190611f62565b6114fc9190612450565b9050809250505092915050565b6000808273ffffffffffffffffffffffffffffffffffffffff1663feaf968c6040518163ffffffff1660e01b815260040160a060405180830381865afa158015611557573d6000803e3d6000fd5b505050506040513d601f19601f8201168201806040525081019061157b919061250e565b505050915050670de0b6b3a7640000816115959190612589565b915050919050565b828054828255906000526020600020908101928215611616579160200282015b828111156116155782518260006101000a81548173ffffffffffffffffffffffffffffffffffffffff021916908373ffffffffffffffffffffffffffffffffffffffff160217905550916020019190600101906115bd565b5b5090506116239190611627565b5090565b5b80821115611640576000816000905550600101611628565b5090565b6000604051905090565b600080fd5b600080fd5b600073ffffffffffffffffffffffffffffffffffffffff82169050919050565b600061168382611658565b9050919050565b61169381611678565b811461169e57600080fd5b50565b6000813590506116b08161168a565b92915050565b6000602082840312156116cc576116cb61164e565b5b60006116da848285016116a1565b91505092915050565b600081519050919050565b600082825260208201905092915050565b60005b8381101561171d578082015181840152602081019050611702565b60008484015250505050565b6000601f19601f8301169050919050565b6000611745826116e3565b61174f81856116ee565b935061175f8185602086016116ff565b61176881611729565b840191505092915050565b6000602082019050818103600083015261178d818461173a565b905092915050565b6000819050919050565b6117a881611795565b81146117b357600080fd5b50565b6000813590506117c58161179f565b92915050565b6000602082840312156117e1576117e061164e565b5b60006117ef848285016117b6565b91505092915050565b61180181611678565b82525050565b600060208201905061181c60008301846117f8565b92915050565b61182b81611795565b82525050565b60008115159050919050565b61184681611831565b82525050565b6000610120820190508181036000830152611867818c61173a565b9050818103602083015261187b818b61173a565b9050818103604083015261188f818a61173a565b905061189e6060830189611822565b6118ab6080830188611822565b6118b860a0830187611822565b6118c560c083018661183d565b6118d260e083018561183d565b6118e0610100830184611822565b9a9950505050505050505050565b600080fd5b600080fd5b600080fd5b60008083601f840112611913576119126118ee565b5b8235905067ffffffffffffffff8111156119305761192f6118f3565b5b60208301915083600182028301111561194c5761194b6118f8565b5b9250929050565b6000806020838503121561196a5761196961164e565b5b600083013567ffffffffffffffff81111561198857611987611653565b5b611994858286016118fd565b92509250509250929050565b60006020820190506119b56000830184611822565b92915050565b600080fd5b7f4e487b7100000000000000000000000000000000000000000000000000000000600052604160045260246000fd5b6119f882611729565b810181811067ffffffffffffffff82111715611a1757611a166119c0565b5b80604052505050565b6000611a2a611644565b9050611a3682826119ef565b919050565b600067ffffffffffffffff821115611a5657611a556119c0565b5b611a5f82611729565b9050602081019050919050565b82818337600083830152505050565b6000611a8e611a8984611a3b565b611a20565b905082815260208101848484011115611aaa57611aa96119bb565b5b611ab5848285611a6c565b509392505050565b600082601f830112611ad257611ad16118ee565b5b8135611ae2848260208601611a7b565b91505092915050565b600060208284031215611b0157611b0061164e565b5b600082013567ffffffffffffffff811115611b1f57611b1e611653565b5b611b2b84828501611abd565b91505092915050565b600081519050919050565b600082825260208201905092915050565b6000611b5b82611b34565b611b658185611b3f565b9350611b758185602086016116ff565b611b7e81611729565b840191505092915050565b6000604082019050611b9e600083018561183d565b8181036020830152611bb08184611b50565b90509392505050565b600067ffffffffffffffff821115611bd457611bd36119c0565b5b611bdd82611729565b9050602081019050919050565b6000611bfd611bf884611bb9565b611a20565b905082815260208101848484011115611c1957611c186119bb565b5b611c24848285611a6c565b509392505050565b600082601f830112611c4157611c406118ee565b5b8135611c51848260208601611bea565b91505092915050565b600080600080600060a08688031215611c7657611c7561164e565b5b600086013567ffffffffffffffff811115611c9457611c93611653565b5b611ca088828901611c2c565b955050602086013567ffffffffffffffff811115611cc157611cc0611653565b5b611ccd88828901611c2c565b945050604086013567ffffffffffffffff811115611cee57611ced611653565b5b611cfa88828901611c2c565b9350506060611d0b888289016117b6565b9250506080611d1c888289016117b6565b9150509295509295909350565b7f4e487b7100000000000000000000000000000000000000000000000000000000600052602260045260246000fd5b60006002820490506001821680611d7057607f821691505b602082108103611d8357611d82611d29565b5b50919050565b600081905092915050565b6000611da08385611d89565b9350611dad838584611a6c565b82840190509392505050565b6000611dc6828486611d94565b91508190509392505050565b7f4e487b7100000000000000000000000000000000000000000000000000000000600052603260045260246000fd5b7f416d6f756e74206d757374206e6f74206265206c657373207468616e204d494e60008201527f494d554d5f555344000000000000000000000000000000000000000000000000602082015250565b6000611e5d6028836116ee565b9150611e6882611e01565b604082019050919050565b60006020820190508181036000830152611e8c81611e50565b9050919050565b7f63616d706169676e206d75737420657869737400000000000000000000000000600082015250565b6000611ec96013836116ee565b9150611ed482611e93565b602082019050919050565b60006020820190508181036000830152611ef881611ebc565b9050919050565b7f4e487b7100000000000000000000000000000000000000000000000000000000600052601160045260246000fd5b6000611f3982611795565b9150611f4483611795565b9250828201905080821115611f5c57611f5b611eff565b5b92915050565b6000611f6d82611795565b9150611f7883611795565b9250828202611f8681611795565b91508282048414831517611f9d57611f9c611eff565b5b5092915050565b6000611faf82611795565b9150611fba83611795565b9250828203905081811115611fd257611fd1611eff565b5b92915050565b7f66756e64696e67206d757374206265207375636365737366756c000000000000600082015250565b600061200e601a836116ee565b915061201982611fd8565b602082019050919050565b6000602082019050818103600083015261203d81612001565b9050919050565b50565b6000612054600083611d89565b915061205f82612044565b600082019050919050565b600061207582612047565b9150819050919050565b7f43616c6c206661696c6564000000000000000000000000000000000000000000600082015250565b60006120b5600b836116ee565b91506120c08261207f565b602082019050919050565b600060208201905081810360008301526120e4816120a8565b9050919050565b60008190508160005260206000209050919050565b60006020601f8301049050919050565b600082821b905092915050565b60006008830261214d7fffffffffffffffffffffffffffffffffffffffffffffffffffffffffffffffff82612110565b6121578683612110565b95508019841693508086168417925050509392505050565b6000819050919050565b600061219461218f61218a84611795565b61216f565b611795565b9050919050565b6000819050919050565b6121ae83612179565b6121c26121ba8261219b565b84845461211d565b825550505050565b600090565b6121d76121ca565b6121e28184846121a5565b505050565b5b81811015612206576121fb6000826121cf565b6001810190506121e8565b5050565b601f82111561224b5761221c816120eb565b61222584612100565b81016020851015612234578190505b61224861224085612100565b8301826121e7565b50505b505050565b600082821c905092915050565b600061226e60001984600802612250565b1980831691505092915050565b6000612287838361225d565b9150826002028217905092915050565b6122a0826116e3565b67ffffffffffffffff8111156122b9576122b86119c0565b5b6122c38254611d58565b6122ce82828561220a565b600060209050601f83116001811461230157600084156122ef578287015190505b6122f9858261227b565b865550612361565b601f19841661230f866120eb565b60005b8281101561233757848901518255600182019150602085019450602081019050612312565b868310156123545784890151612350601f89168261225d565b8355505b6001600288020188555050505b505050505050565b60006060820190508181036000830152612383818661173a565b90508181036020830152612397818561173a565b905081810360408301526123ab818461173a565b9050949350505050565b7f4661696c656420746f2073656e64204574686572000000000000000000000000600082015250565b60006123eb6014836116ee565b91506123f6826123b5565b602082019050919050565b6000602082019050818103600083015261241a816123de565b9050919050565b7f4e487b7100000000000000000000000000000000000000000000000000000000600052601260045260246000fd5b600061245b82611795565b915061246683611795565b92508261247657612475612421565b5b828204905092915050565b600069ffffffffffffffffffff82169050919050565b6124a081612481565b81146124ab57600080fd5b50565b6000815190506124bd81612497565b92915050565b6000819050919050565b6124d6816124c3565b81146124e157600080fd5b50565b6000815190506124f3816124cd565b92915050565b6000815190506125088161179f565b92915050565b600080600080600060a0868803121561252a5761252961164e565b5b6000612538888289016124ae565b9550506020612549888289016124e4565b945050604061255a888289016124f9565b935050606061256b888289016124f9565b925050608061257c888289016124ae565b9150509295509295909350565b6000612594826124c3565b915061259f836124c3565b92508282026125ad816124c3565b91507f800000000000000000000000000000000000000000000000000000000000000084146000841216156125e5576125e4611eff565b5b82820584148315176125fa576125f9611eff565b5b509291505056fea2646970667358221220ec77973e0fd952e301fba236f48fa7ca9a4481fbf386db611726d9042c7bc74764736f6c634300081c0033",
  "linkReferences": {},
  "deployedLinkReferences": {}
}