{
  "_format": "hh-sol-artifact-1",
  "contractName": "Fund",
  "sourceName": "contracts/Fund.sol",
  "abi": [
    {
      "inputs": [
        {
          "internalType": "address",
          "name": "priceFeed",
          "type": "address"
        }
      ],
      "stateMutability": "nonpayable",
      "type": "constructor"
    },
    {
      "anonymous": false,
      "inputs": [
        {
          "indexed": false,
          "internalType": "string",
          "name": "name",
          "type": "string"
        },
        {
          "indexed": false,
          "internalType": "string",
          "name": "description",
          "type": "string"
        },
        {
          "indexed": false,
          "internalType": "string",
          "name": "imageUrl",
          "type": "string"
        },
        {
          "indexed": true,
          "internalType": "uint256",
          "name": "goal",
          "type": "uint256"
        },
        {
          "indexed": true,
          "internalType": "uint256",
          "name": "deadline",
          "type": "uint256"
        }
      ],
      "name": "CampaignCreated",
      "type": "event"
    },
    {
      "inputs": [],
      "name": "MINIMUM_USD",
      "outputs": [
        {
          "internalType": "uint256",
          "name": "",
          "type": "uint256"
        }
      ],
      "stateMutability": "view",
      "type": "function"
    },
    {
      "inputs": [
        {
          "internalType": "uint256",
          "name": "",
          "type": "uint256"
        }
      ],
      "name": "campaignCount",
      "outputs": [
        {
          "internalType": "address",
          "name": "",
          "type": "address"
        }
      ],
      "stateMutability": "view",
      "type": "function"
    },
    {
      "inputs": [
        {
          "internalType": "address",
          "name": "",
          "type": "address"
        },
        {
          "internalType": "uint256",
          "name": "",
          "type": "uint256"
        }
      ],
      "name": "campaignFunders",
      "outputs": [
        {
          "internalType": "address",
          "name": "",
          "type": "address"
        }
      ],
      "stateMutability": "view",
      "type": "function"
    },
    {
      "inputs": [
        {
          "internalType": "address",
          "name": "",
          "type": "address"
        }
      ],
      "name": "campaigns",
      "outputs": [
        {
          "internalType": "string",
          "name": "name",
          "type": "string"
        },
        {
          "internalType": "string",
          "name": "description",
          "type": "string"
        },
        {
          "internalType": "string",
          "name": "imageUrl",
          "type": "string"
        },
        {
          "internalType": "uint256",
          "name": "fundingGoal",
          "type": "uint256"
        },
        {
          "internalType": "uint256",
          "name": "balance",
          "type": "uint256"
        },
        {
          "internalType": "uint256",
          "name": "deadline",
          "type": "uint256"
        },
        {
          "internalType": "bool",
          "name": "fundingSuccessful",
          "type": "bool"
        },
        {
          "internalType": "bool",
          "name": "campaignExist",
          "type": "bool"
        },
        {
          "internalType": "uint256",
          "name": "lastTimeStamp",
          "type": "uint256"
        }
      ],
      "stateMutability": "view",
      "type": "function"
    },
    {
      "inputs": [
        {
          "internalType": "bytes",
          "name": "checkData",
          "type": "bytes"
        }
      ],
      "name": "checkUpkeep",
      "outputs": [
        {
          "internalType": "bool",
          "name": "upkeepNeeded",
          "type": "bool"
        },
        {
          "internalType": "bytes",
          "name": "performData",
          "type": "bytes"
        }
      ],
      "stateMutability": "view",
      "type": "function"
    },
    {
      "inputs": [
        {
          "internalType": "address",
          "name": "",
          "type": "address"
        },
        {
          "internalType": "address",
          "name": "",
          "type": "address"
        }
      ],
      "name": "contributions",
      "outputs": [
        {
          "internalType": "uint256",
          "name": "",
          "type": "uint256"
        }
      ],
      "stateMutability": "view",
      "type": "function"
    },
    {
      "inputs": [
        {
          "internalType": "string",
          "name": "name",
          "type": "string"
        },
        {
          "internalType": "string",
          "name": "description",
          "type": "string"
        },
        {
          "internalType": "string",
          "name": "imageUrl",
          "type": "string"
        },
        {
          "internalType": "uint256",
          "name": "goal",
          "type": "uint256"
        },
        {
          "internalType": "uint256",
          "name": "deadline",
          "type": "uint256"
        }
      ],
      "name": "createCampaign",
      "outputs": [],
      "stateMutability": "nonpayable",
      "type": "function"
    },
    {
      "inputs": [
        {
          "internalType": "address",
          "name": "creator",
          "type": "address"
        }
      ],
      "name": "fundCampaign",
      "outputs": [],
      "stateMutability": "payable",
      "type": "function"
    },
    {
      "inputs": [],
      "name": "getAllCampaignAddresses",
      "outputs": [
        {
          "internalType": "address[]",
          "name": "",
          "type": "address[]"
        }
      ],
      "stateMutability": "view",
      "type": "function"
    },
    {
      "inputs": [],
      "name": "getAllCampaignDetails",
      "outputs": [
        {
          "internalType": "string[]",
          "name": "names",
          "type": "string[]"
        },
        {
          "internalType": "string[]",
          "name": "descriptions",
          "type": "string[]"
        },
        {
          "internalType": "string[]",
          "name": "imageUrls",
          "type": "string[]"
        },
        {
          "internalType": "uint256[]",
          "name": "goals",
          "type": "uint256[]"
        },
        {
          "internalType": "uint256[]",
          "name": "balances",
          "type": "uint256[]"
        },
        {
          "internalType": "uint256[]",
          "name": "deadlines",
          "type": "uint256[]"
        },
        {
          "internalType": "bool[]",
          "name": "fundingSuccesses",
          "type": "bool[]"
        },
        {
          "internalType": "bool[]",
          "name": "campaignExists",
          "type": "bool[]"
        },
        {
          "internalType": "address[]",
          "name": "creators",
          "type": "address[]"
        }
      ],
      "stateMutability": "view",
      "type": "function"
    },
    {
      "inputs": [],
      "name": "getAllCampaigns",
      "outputs": [
        {
          "internalType": "uint256",
          "name": "",
          "type": "uint256"
        }
      ],
      "stateMutability": "view",
      "type": "function"
    },
    {
      "inputs": [
        {
          "internalType": "address",
          "name": "creator",
          "type": "address"
        }
      ],
      "name": "getCampaignBalance",
      "outputs": [
        {
          "internalType": "uint256",
          "name": "",
          "type": "uint256"
        }
      ],
      "stateMutability": "view",
      "type": "function"
    },
    {
      "inputs": [
        {
          "internalType": "address",
          "name": "creator",
          "type": "address"
        }
      ],
      "name": "getCampaignName",
      "outputs": [
        {
          "internalType": "string",
          "name": "",
          "type": "string"
        }
      ],
      "stateMutability": "view",
      "type": "function"
    },
    {
      "inputs": [],
      "name": "owner",
      "outputs": [
        {
          "internalType": "address",
          "name": "",
          "type": "address"
        }
      ],
      "stateMutability": "view",
      "type": "function"
    },
    {
      "inputs": [
        {
          "internalType": "bytes",
          "name": "performData",
          "type": "bytes"
        }
      ],
      "name": "performUpkeep",
      "outputs": [],
      "stateMutability": "nonpayable",
      "type": "function"
    },
    {
      "inputs": [],
      "name": "withdrawFromCampaign",
      "outputs": [],
      "stateMutability": "nonpayable",
      "type": "function"
    }
  ],
  "bytecode": "0x608060405234801561001057600080fd5b5060405161359e38038061359e8339818101604052810190610032919061011c565b336000806101000a81548173ffffffffffffffffffffffffffffffffffffffff021916908373ffffffffffffffffffffffffffffffffffffffff16021790555080600260006101000a81548173ffffffffffffffffffffffffffffffffffffffff021916908373ffffffffffffffffffffffffffffffffffffffff16021790555050610149565b600080fd5b600073ffffffffffffffffffffffffffffffffffffffff82169050919050565b60006100e9826100be565b9050919050565b6100f9816100de565b811461010457600080fd5b50565b600081519050610116816100f0565b92915050565b600060208284031215610132576101316100b9565b5b600061014084828501610107565b91505092915050565b613446806101586000396000f3fe6080604052600436106100f35760003560e01c80637013e5f51161008a5780638b2fad63116100595780638b2fad631461035e5780638da5cb5b1461038957806395a41fe2146103b4578063980f2e66146103e7576100f3565b80637013e5f5146102a2578063839f192b146102df578063865449521461031c57806386cdf60414610333576100f3565b80634585e33b116100c65780634585e33b146101f45780636682717e1461021d5780636b69a592146102395780636e04ff0d14610264576100f3565b8063044ae09d146100f857806313484264146101355780631601d0b51461017257806329369ccf146101b7575b600080fd5b34801561010457600080fd5b5061011f600480360381019061011a9190611fcb565b610410565b60405161012c9190612088565b60405180910390f35b34801561014157600080fd5b5061015c600480360381019061015791906120e0565b6104e4565b604051610169919061211c565b60405180910390f35b34801561017e57600080fd5b5061019960048036038101906101949190611fcb565b610523565b6040516101ae99989796959493929190612161565b60405180910390f35b3480156101c357600080fd5b506101de60048036038101906101d99190612203565b610723565b6040516101eb9190612243565b60405180910390f35b34801561020057600080fd5b5061021b600480360381019061021691906122c3565b610748565b005b61023760048036038101906102329190611fcb565b610c07565b005b34801561024557600080fd5b5061024e610f29565b60405161025b9190612243565b60405180910390f35b34801561027057600080fd5b5061028b60048036038101906102869190612440565b610f35565b6040516102999291906124de565b60405180910390f35b3480156102ae57600080fd5b506102c960048036038101906102c49190611fcb565b6111ae565b6040516102d69190612243565b60405180910390f35b3480156102eb57600080fd5b506103066004803603810190610301919061250e565b6111fa565b604051610313919061211c565b60405180910390f35b34801561032857600080fd5b50610331611248565b005b34801561033f57600080fd5b5061034861140e565b6040516103559190612243565b60405180910390f35b34801561036a57600080fd5b5061037361141b565b604051610380919061260c565b60405180910390f35b34801561039557600080fd5b5061039e6114a9565b6040516103ab919061211c565b60405180910390f35b3480156103c057600080fd5b506103c96114cd565b6040516103de999897969594939291906128b6565b60405180910390f35b3480156103f357600080fd5b5061040e60048036038101906104099190612a23565b611b6d565b005b6060600360008373ffffffffffffffffffffffffffffffffffffffff1673ffffffffffffffffffffffffffffffffffffffff168152602001908152602001600020600001805461045f90612b21565b80601f016020809104026020016040519081016040528092919081815260200182805461048b90612b21565b80156104d85780601f106104ad576101008083540402835291602001916104d8565b820191906000526020600020905b8154815290600101906020018083116104bb57829003601f168201915b50505050509050919050565b600181815481106104f457600080fd5b906000526020600020016000915054906101000a900473ffffffffffffffffffffffffffffffffffffffff1681565b600360205280600052604060002060009150905080600001805461054690612b21565b80601f016020809104026020016040519081016040528092919081815260200182805461057290612b21565b80156105bf5780601f10610594576101008083540402835291602001916105bf565b820191906000526020600020905b8154815290600101906020018083116105a257829003601f168201915b5050505050908060010180546105d490612b21565b80601f016020809104026020016040519081016040528092919081815260200182805461060090612b21565b801561064d5780601f106106225761010080835404028352916020019161064d565b820191906000526020600020905b81548152906001019060200180831161063057829003601f168201915b50505050509080600201805461066290612b21565b80601f016020809104026020016040519081016040528092919081815260200182805461068e90612b21565b80156106db5780601f106106b0576101008083540402835291602001916106db565b820191906000526020600020905b8154815290600101906020018083116106be57829003601f168201915b5050505050908060030154908060040154908060050154908060060160009054906101000a900460ff16908060060160019054906101000a900460ff16908060070154905089565b6005602052816000526040600020602052806000526040600020600091509150505481565b7f5fe7f977e71dba2ea1a68e21057beebb9be2ac30c6410aa38d4f3fbe41dcffd28282604051610779929190612b82565b6040518091039020036108775760005b600180549050811015610875576000600182815481106107ac576107ab612b9b565b5b9060005260206000200160009054906101000a900473ffffffffffffffffffffffffffffffffffffffff1690506000600360008373ffffffffffffffffffffffffffffffffffffffff1673ffffffffffffffffffffffffffffffffffffffff1681526020019081526020016000209050806003015481600401541015801561084357508060060160009054906101000a900460ff16155b156108665760018160060160006101000a81548160ff0219169083151502179055505b50508080600101915050610789565b505b7ff2ee15ea639b73fa3db9b34a245bdfa015c260c598b211bf05a1ecc4b3e3b4f282826040516108a8929190612b82565b604051809103902003610c035760005b600180549050811015610c01576000600182815481106108db576108da612b9b565b5b9060005260206000200160009054906101000a900473ffffffffffffffffffffffffffffffffffffffff1690506000600360008373ffffffffffffffffffffffffffffffffffffffff1673ffffffffffffffffffffffffffffffffffffffff168152602001908152602001600020905060006201518082600501546109609190612bf9565b90508160060160019054906101000a900460ff16801561098f57508160060160009054906101000a900460ff16155b80156109a95750808260070154426109a79190612c3b565b115b15610bf1576000600460008573ffffffffffffffffffffffffffffffffffffffff1673ffffffffffffffffffffffffffffffffffffffff168152602001908152602001600020805480602002602001604051908101604052809291908181526020018280548015610a6f57602002820191906000526020600020905b8160009054906101000a900473ffffffffffffffffffffffffffffffffffffffff1673ffffffffffffffffffffffffffffffffffffffff1681526020019060010190808311610a25575b5050505050905060005b8151811015610bc7576000828281518110610a9757610a96612b9b565b5b602002602001015190506000600560008873ffffffffffffffffffffffffffffffffffffffff1673ffffffffffffffffffffffffffffffffffffffff16815260200190815260200160002060008373ffffffffffffffffffffffffffffffffffffffff1673ffffffffffffffffffffffffffffffffffffffff1681526020019081526020016000205490506000811115610bb8576000600560008973ffffffffffffffffffffffffffffffffffffffff1673ffffffffffffffffffffffffffffffffffffffff16815260200190815260200160002060008473ffffffffffffffffffffffffffffffffffffffff1673ffffffffffffffffffffffffffffffffffffffff16815260200190815260200160002081905550610bb78282611dd8565b5b50508080600101915050610a79565b5060008360060160016101000a81548160ff02191690831515021790555060008360040181905550505b50505080806001019150506108b8565b505b5050565b674563918244f40000610c45600260009054906101000a900473ffffffffffffffffffffffffffffffffffffffff1634611e8990919063ffffffff16565b1015610c86576040517f08c379a0000000000000000000000000000000000000000000000000000000008152600401610c7d90612cbb565b60405180910390fd5b600360008273ffffffffffffffffffffffffffffffffffffffff1673ffffffffffffffffffffffffffffffffffffffff16815260200190815260200160002060060160019054906101000a900460ff16610d15576040517f08c379a0000000000000000000000000000000000000000000000000000000008152600401610d0c90612d27565b60405180910390fd5b6000600560008373ffffffffffffffffffffffffffffffffffffffff1673ffffffffffffffffffffffffffffffffffffffff16815260200190815260200160002060003373ffffffffffffffffffffffffffffffffffffffff1673ffffffffffffffffffffffffffffffffffffffff1681526020019081526020016000205403610e3a57600460008273ffffffffffffffffffffffffffffffffffffffff1673ffffffffffffffffffffffffffffffffffffffff168152602001908152602001600020339080600181540180825580915050600190039060005260206000200160009091909190916101000a81548173ffffffffffffffffffffffffffffffffffffffff021916908373ffffffffffffffffffffffffffffffffffffffff1602179055505b34600560008373ffffffffffffffffffffffffffffffffffffffff1673ffffffffffffffffffffffffffffffffffffffff16815260200190815260200160002060003373ffffffffffffffffffffffffffffffffffffffff1673ffffffffffffffffffffffffffffffffffffffff1681526020019081526020016000206000828254610ec69190612d47565b9250508190555034600360008373ffffffffffffffffffffffffffffffffffffffff1673ffffffffffffffffffffffffffffffffffffffff1681526020019081526020016000206004016000828254610f1f9190612d47565b9250508190555050565b674563918244f4000081565b600060607f5fe7f977e71dba2ea1a68e21057beebb9be2ac30c6410aa38d4f3fbe41dcffd28380519060200120036110495760005b60018054905081101561104757600060018281548110610f8d57610f8c612b9b565b5b9060005260206000200160009054906101000a900473ffffffffffffffffffffffffffffffffffffffff1690506000600360008373ffffffffffffffffffffffffffffffffffffffff1673ffffffffffffffffffffffffffffffffffffffff1681526020019081526020016000209050806003015481600401541015801561102457508060060160009054906101000a900460ff16155b1561103857600186945094505050506111a9565b50508080600101915050610f6a565b505b7ff2ee15ea639b73fa3db9b34a245bdfa015c260c598b211bf05a1ecc4b3e3b4f28380519060200120036111925760005b6001805490508110156111905760006001828154811061109d5761109c612b9b565b5b9060005260206000200160009054906101000a900473ffffffffffffffffffffffffffffffffffffffff1690506000600360008373ffffffffffffffffffffffffffffffffffffffff1673ffffffffffffffffffffffffffffffffffffffff168152602001908152602001600020905060006201518082600501546111229190612bf9565b90508160060160019054906101000a900460ff16801561115157508160060160009054906101000a900460ff16155b801561116b5750808260070154426111699190612c3b565b115b156111805760018795509550505050506111a9565b505050808060010191505061107a565b505b600060405180602001604052806000815250915091505b915091565b6000600360008373ffffffffffffffffffffffffffffffffffffffff1673ffffffffffffffffffffffffffffffffffffffff168152602001908152602001600020600401549050919050565b6004602052816000526040600020818154811061121657600080fd5b906000526020600020016000915091509054906101000a900473ffffffffffffffffffffffffffffffffffffffff1681565b6000600360003373ffffffffffffffffffffffffffffffffffffffff1673ffffffffffffffffffffffffffffffffffffffff16815260200190815260200160002090508060060160019054906101000a900460ff166112dc576040517f08c379a00000000000000000000000000000000000000000000000000000000081526004016112d390612d27565b60405180910390fd5b8060060160009054906101000a900460ff1661132d576040517f08c379a000000000000000000000000000000000000000000000000000000000815260040161132490612dc7565b60405180910390fd5b6000816004015490506000826004018190555060008260060160016101000a81548160ff02191690831515021790555060003373ffffffffffffffffffffffffffffffffffffffff168260405161138390612e0d565b60006040518083038185875af1925050503d80600081146113c0576040519150601f19603f3d011682016040523d82523d6000602084013e6113c5565b606091505b5050905080611409576040517f08c379a000000000000000000000000000000000000000000000000000000000815260040161140090612e6e565b60405180910390fd5b505050565b6000600180549050905090565b6060600180548060200260200160405190810160405280929190818152602001828054801561149f57602002820191906000526020600020905b8160009054906101000a900473ffffffffffffffffffffffffffffffffffffffff1673ffffffffffffffffffffffffffffffffffffffff1681526020019060010190808311611455575b5050505050905090565b60008054906101000a900473ffffffffffffffffffffffffffffffffffffffff1681565b6060806060806060806060806060600060018054905090508067ffffffffffffffff8111156114ff576114fe612315565b5b60405190808252806020026020018201604052801561153257816020015b606081526020019060019003908161151d5790505b5099508067ffffffffffffffff81111561154f5761154e612315565b5b60405190808252806020026020018201604052801561158257816020015b606081526020019060019003908161156d5790505b5098508067ffffffffffffffff81111561159f5761159e612315565b5b6040519080825280602002602001820160405280156115d257816020015b60608152602001906001900390816115bd5790505b5097508067ffffffffffffffff8111156115ef576115ee612315565b5b60405190808252806020026020018201604052801561161d5781602001602082028036833780820191505090505b5096508067ffffffffffffffff81111561163a57611639612315565b5b6040519080825280602002602001820160405280156116685781602001602082028036833780820191505090505b5095508067ffffffffffffffff81111561168557611684612315565b5b6040519080825280602002602001820160405280156116b35781602001602082028036833780820191505090505b5094508067ffffffffffffffff8111156116d0576116cf612315565b5b6040519080825280602002602001820160405280156116fe5781602001602082028036833780820191505090505b5093508067ffffffffffffffff81111561171b5761171a612315565b5b6040519080825280602002602001820160405280156117495781602001602082028036833780820191505090505b5092508067ffffffffffffffff81111561176657611765612315565b5b6040519080825280602002602001820160405280156117945781602001602082028036833780820191505090505b50915060005b81811015611b60576000600182815481106117b8576117b7612b9b565b5b9060005260206000200160009054906101000a900473ffffffffffffffffffffffffffffffffffffffff1690506000600360008373ffffffffffffffffffffffffffffffffffffffff1673ffffffffffffffffffffffffffffffffffffffff168152602001908152602001600020905080600001805461183790612b21565b80601f016020809104026020016040519081016040528092919081815260200182805461186390612b21565b80156118b05780601f10611885576101008083540402835291602001916118b0565b820191906000526020600020905b81548152906001019060200180831161189357829003601f168201915b50505050508d84815181106118c8576118c7612b9b565b5b60200260200101819052508060010180546118e290612b21565b80601f016020809104026020016040519081016040528092919081815260200182805461190e90612b21565b801561195b5780601f106119305761010080835404028352916020019161195b565b820191906000526020600020905b81548152906001019060200180831161193e57829003601f168201915b50505050508c848151811061197357611972612b9b565b5b602002602001018190525080600201805461198d90612b21565b80601f01602080910402602001604051908101604052809291908181526020018280546119b990612b21565b8015611a065780601f106119db57610100808354040283529160200191611a06565b820191906000526020600020905b8154815290600101906020018083116119e957829003601f168201915b50505050508b8481518110611a1e57611a1d612b9b565b5b602002602001018190525080600301548a8481518110611a4157611a40612b9b565b5b6020026020010181815250508060040154898481518110611a6557611a64612b9b565b5b6020026020010181815250508060050154888481518110611a8957611a88612b9b565b5b6020026020010181815250508060060160009054906101000a900460ff16878481518110611aba57611ab9612b9b565b5b6020026020010190151590811515815250508060060160019054906101000a900460ff16868481518110611af157611af0612b9b565b5b60200260200101901515908115158152505081858481518110611b1757611b16612b9b565b5b602002602001019073ffffffffffffffffffffffffffffffffffffffff16908173ffffffffffffffffffffffffffffffffffffffff16815250505050808060010191505061179a565b5050909192939495969798565b600360003373ffffffffffffffffffffffffffffffffffffffff1673ffffffffffffffffffffffffffffffffffffffff16815260200190815260200160002060060160019054906101000a900460ff1615611bfd576040517f08c379a0000000000000000000000000000000000000000000000000000000008152600401611bf490612eda565b60405180910390fd5b6040518061012001604052808681526020018581526020018481526020018381526020016000815260200182815260200160001515815260200160011515815260200142815250600360003373ffffffffffffffffffffffffffffffffffffffff1673ffffffffffffffffffffffffffffffffffffffff1681526020019081526020016000206000820151816000019081611c9891906130a6565b506020820151816001019081611cae91906130a6565b506040820151816002019081611cc491906130a6565b50606082015181600301556080820151816004015560a0820151816005015560c08201518160060160006101000a81548160ff02191690831515021790555060e08201518160060160016101000a81548160ff02191690831515021790555061010082015181600701559050506001339080600181540180825580915050600190039060005260206000200160009091909190916101000a81548173ffffffffffffffffffffffffffffffffffffffff021916908373ffffffffffffffffffffffffffffffffffffffff16021790555080827fbb3544837a6c4d7b36d29b50fd5b2907881b6bf0a28bbe579d05470dac27e022878787604051611dc993929190613178565b60405180910390a35050505050565b60008273ffffffffffffffffffffffffffffffffffffffff1682604051611dfe90612e0d565b60006040518083038185875af1925050503d8060008114611e3b576040519150601f19603f3d011682016040523d82523d6000602084013e611e40565b606091505b5050905080611e84576040517f08c379a0000000000000000000000000000000000000000000000000000000008152600401611e7b90613210565b60405180910390fd5b505050565b600080611e9583611ec5565b90506000670de0b6b3a76400008583611eae9190612bf9565b611eb8919061325f565b9050809250505092915050565b6000808273ffffffffffffffffffffffffffffffffffffffff1663feaf968c6040518163ffffffff1660e01b815260040160a060405180830381865afa158015611f13573d6000803e3d6000fd5b505050506040513d601f19601f82011682018060405250810190611f37919061331d565b505050915050670de0b6b3a764000081611f519190613398565b915050919050565b6000604051905090565b600080fd5b600080fd5b600073ffffffffffffffffffffffffffffffffffffffff82169050919050565b6000611f9882611f6d565b9050919050565b611fa881611f8d565b8114611fb357600080fd5b50565b600081359050611fc581611f9f565b92915050565b600060208284031215611fe157611fe0611f63565b5b6000611fef84828501611fb6565b91505092915050565b600081519050919050565b600082825260208201905092915050565b60005b83811015612032578082015181840152602081019050612017565b60008484015250505050565b6000601f19601f8301169050919050565b600061205a82611ff8565b6120648185612003565b9350612074818560208601612014565b61207d8161203e565b840191505092915050565b600060208201905081810360008301526120a2818461204f565b905092915050565b6000819050919050565b6120bd816120aa565b81146120c857600080fd5b50565b6000813590506120da816120b4565b92915050565b6000602082840312156120f6576120f5611f63565b5b6000612104848285016120cb565b91505092915050565b61211681611f8d565b82525050565b6000602082019050612131600083018461210d565b92915050565b612140816120aa565b82525050565b60008115159050919050565b61215b81612146565b82525050565b600061012082019050818103600083015261217c818c61204f565b90508181036020830152612190818b61204f565b905081810360408301526121a4818a61204f565b90506121b36060830189612137565b6121c06080830188612137565b6121cd60a0830187612137565b6121da60c0830186612152565b6121e760e0830185612152565b6121f5610100830184612137565b9a9950505050505050505050565b6000806040838503121561221a57612219611f63565b5b600061222885828601611fb6565b925050602061223985828601611fb6565b9150509250929050565b60006020820190506122586000830184612137565b92915050565b600080fd5b600080fd5b600080fd5b60008083601f8401126122835761228261225e565b5b8235905067ffffffffffffffff8111156122a05761229f612263565b5b6020830191508360018202830111156122bc576122bb612268565b5b9250929050565b600080602083850312156122da576122d9611f63565b5b600083013567ffffffffffffffff8111156122f8576122f7611f68565b5b6123048582860161226d565b92509250509250929050565b600080fd5b7f4e487b7100000000000000000000000000000000000000000000000000000000600052604160045260246000fd5b61234d8261203e565b810181811067ffffffffffffffff8211171561236c5761236b612315565b5b80604052505050565b600061237f611f59565b905061238b8282612344565b919050565b600067ffffffffffffffff8211156123ab576123aa612315565b5b6123b48261203e565b9050602081019050919050565b82818337600083830152505050565b60006123e36123de84612390565b612375565b9050828152602081018484840111156123ff576123fe612310565b5b61240a8482856123c1565b509392505050565b600082601f8301126124275761242661225e565b5b81356124378482602086016123d0565b91505092915050565b60006020828403121561245657612455611f63565b5b600082013567ffffffffffffffff81111561247457612473611f68565b5b61248084828501612412565b91505092915050565b600081519050919050565b600082825260208201905092915050565b60006124b082612489565b6124ba8185612494565b93506124ca818560208601612014565b6124d38161203e565b840191505092915050565b60006040820190506124f36000830185612152565b818103602083015261250581846124a5565b90509392505050565b6000806040838503121561252557612524611f63565b5b600061253385828601611fb6565b9250506020612544858286016120cb565b9150509250929050565b600081519050919050565b600082825260208201905092915050565b6000819050602082019050919050565b61258381611f8d565b82525050565b6000612595838361257a565b60208301905092915050565b6000602082019050919050565b60006125b98261254e565b6125c38185612559565b93506125ce8361256a565b8060005b838110156125ff5781516125e68882612589565b97506125f1836125a1565b9250506001810190506125d2565b5085935050505092915050565b6000602082019050818103600083015261262681846125ae565b905092915050565b600081519050919050565b600082825260208201905092915050565b6000819050602082019050919050565b600082825260208201905092915050565b600061267682611ff8565b612680818561265a565b9350612690818560208601612014565b6126998161203e565b840191505092915050565b60006126b0838361266b565b905092915050565b6000602082019050919050565b60006126d08261262e565b6126da8185612639565b9350836020820285016126ec8561264a565b8060005b85811015612728578484038952815161270985826126a4565b9450612714836126b8565b925060208a019950506001810190506126f0565b50829750879550505050505092915050565b600081519050919050565b600082825260208201905092915050565b6000819050602082019050919050565b61276f816120aa565b82525050565b60006127818383612766565b60208301905092915050565b6000602082019050919050565b60006127a58261273a565b6127af8185612745565b93506127ba83612756565b8060005b838110156127eb5781516127d28882612775565b97506127dd8361278d565b9250506001810190506127be565b5085935050505092915050565b600081519050919050565b600082825260208201905092915050565b6000819050602082019050919050565b61282d81612146565b82525050565b600061283f8383612824565b60208301905092915050565b6000602082019050919050565b6000612863826127f8565b61286d8185612803565b935061287883612814565b8060005b838110156128a95781516128908882612833565b975061289b8361284b565b92505060018101905061287c565b5085935050505092915050565b60006101208201905081810360008301526128d1818c6126c5565b905081810360208301526128e5818b6126c5565b905081810360408301526128f9818a6126c5565b9050818103606083015261290d818961279a565b90508181036080830152612921818861279a565b905081810360a0830152612935818761279a565b905081810360c08301526129498186612858565b905081810360e083015261295d8185612858565b905081810361010083015261297281846125ae565b90509a9950505050505050505050565b600067ffffffffffffffff82111561299d5761299c612315565b5b6129a68261203e565b9050602081019050919050565b60006129c66129c184612982565b612375565b9050828152602081018484840111156129e2576129e1612310565b5b6129ed8482856123c1565b509392505050565b600082601f830112612a0a57612a0961225e565b5b8135612a1a8482602086016129b3565b91505092915050565b600080600080600060a08688031215612a3f57612a3e611f63565b5b600086013567ffffffffffffffff811115612a5d57612a5c611f68565b5b612a69888289016129f5565b955050602086013567ffffffffffffffff811115612a8a57612a89611f68565b5b612a96888289016129f5565b945050604086013567ffffffffffffffff811115612ab757612ab6611f68565b5b612ac3888289016129f5565b9350506060612ad4888289016120cb565b9250506080612ae5888289016120cb565b9150509295509295909350565b7f4e487b7100000000000000000000000000000000000000000000000000000000600052602260045260246000fd5b60006002820490506001821680612b3957607f821691505b602082108103612b4c57612b4b612af2565b5b50919050565b600081905092915050565b6000612b698385612b52565b9350612b768385846123c1565b82840190509392505050565b6000612b8f828486612b5d565b91508190509392505050565b7f4e487b7100000000000000000000000000000000000000000000000000000000600052603260045260246000fd5b7f4e487b7100000000000000000000000000000000000000000000000000000000600052601160045260246000fd5b6000612c04826120aa565b9150612c0f836120aa565b9250828202612c1d816120aa565b91508282048414831517612c3457612c33612bca565b5b5092915050565b6000612c46826120aa565b9150612c51836120aa565b9250828203905081811115612c6957612c68612bca565b5b92915050565b7f416d6f756e7420746f6f206c6f77000000000000000000000000000000000000600082015250565b6000612ca5600e83612003565b9150612cb082612c6f565b602082019050919050565b60006020820190508181036000830152612cd481612c98565b9050919050565b7f43616d706169676e20646f65736e277420657869737400000000000000000000600082015250565b6000612d11601683612003565b9150612d1c82612cdb565b602082019050919050565b60006020820190508181036000830152612d4081612d04565b9050919050565b6000612d52826120aa565b9150612d5d836120aa565b9250828201905080821115612d7557612d74612bca565b5b92915050565b7f46756e64696e67206e6f74207375636365737366756c00000000000000000000600082015250565b6000612db1601683612003565b9150612dbc82612d7b565b602082019050919050565b60006020820190508181036000830152612de081612da4565b9050919050565b50565b6000612df7600083612b52565b9150612e0282612de7565b600082019050919050565b6000612e1882612dea565b9150819050919050565b7f5769746864726177616c206661696c6564000000000000000000000000000000600082015250565b6000612e58601183612003565b9150612e6382612e22565b602082019050919050565b60006020820190508181036000830152612e8781612e4b565b9050919050565b7f43616d706169676e20616c726561647920657869737473000000000000000000600082015250565b6000612ec4601783612003565b9150612ecf82612e8e565b602082019050919050565b60006020820190508181036000830152612ef381612eb7565b9050919050565b60008190508160005260206000209050919050565b60006020601f8301049050919050565b600082821b905092915050565b600060088302612f5c7fffffffffffffffffffffffffffffffffffffffffffffffffffffffffffffffff82612f1f565b612f668683612f1f565b95508019841693508086168417925050509392505050565b6000819050919050565b6000612fa3612f9e612f99846120aa565b612f7e565b6120aa565b9050919050565b6000819050919050565b612fbd83612f88565b612fd1612fc982612faa565b848454612f2c565b825550505050565b600090565b612fe6612fd9565b612ff1818484612fb4565b505050565b5b818110156130155761300a600082612fde565b600181019050612ff7565b5050565b601f82111561305a5761302b81612efa565b61303484612f0f565b81016020851015613043578190505b61305761304f85612f0f565b830182612ff6565b50505b505050565b600082821c905092915050565b600061307d6000198460080261305f565b1980831691505092915050565b6000613096838361306c565b9150826002028217905092915050565b6130af82611ff8565b67ffffffffffffffff8111156130c8576130c7612315565b5b6130d28254612b21565b6130dd828285613019565b600060209050601f83116001811461311057600084156130fe578287015190505b613108858261308a565b865550613170565b601f19841661311e86612efa565b60005b8281101561314657848901518255600182019150602085019450602081019050613121565b86831015613163578489015161315f601f89168261306c565b8355505b6001600288020188555050505b505050505050565b60006060820190508181036000830152613192818661204f565b905081810360208301526131a6818561204f565b905081810360408301526131ba818461204f565b9050949350505050565b7f4661696c656420746f2073656e64204574686572000000000000000000000000600082015250565b60006131fa601483612003565b9150613205826131c4565b602082019050919050565b60006020820190508181036000830152613229816131ed565b9050919050565b7f4e487b7100000000000000000000000000000000000000000000000000000000600052601260045260246000fd5b600061326a826120aa565b9150613275836120aa565b92508261328557613284613230565b5b828204905092915050565b600069ffffffffffffffffffff82169050919050565b6132af81613290565b81146132ba57600080fd5b50565b6000815190506132cc816132a6565b92915050565b6000819050919050565b6132e5816132d2565b81146132f057600080fd5b50565b600081519050613302816132dc565b92915050565b600081519050613317816120b4565b92915050565b600080600080600060a0868803121561333957613338611f63565b5b6000613347888289016132bd565b9550506020613358888289016132f3565b945050604061336988828901613308565b935050606061337a88828901613308565b925050608061338b888289016132bd565b9150509295509295909350565b60006133a3826132d2565b91506133ae836132d2565b92508282026133bc816132d2565b91507f800000000000000000000000000000000000000000000000000000000000000084146000841216156133f4576133f3612bca565b5b828205841483151761340957613408612bca565b5b509291505056fea26469706673582212201b833b09572567f8e49091647d1eab456e76d2cee4da8f110a465ad1d2c7d2df64736f6c634300081c0033",
  "linkReferences": {},
  "deployedLinkReferences": {}
}